:020000040800F2
:100000000000052485150008891000088F100008DD
:10001000951000089B100008A110000800000000C7
:10002000000000000000000000000000A710000811
:10003000B510000800000000C3100008D11000082F
:10004000D5150008D5150008D5150008D5150008E8
:10005000D5150008D5150008F9100008D5150008B9
:10006000D5150008D5150008D5150008D5150008C8
:10007000D5150008D5150008D5150008D5150008B8
:10008000D5150008D5150008D5150008D5150008A8
:10009000D5150008D5150008D5150008D515000898
:1000A000D5150008D5150008D5150008D515000888
:1000B000D5150008D5150008D5150008D515000878
:1000C000D5150008D5150008D5150008D515000868
:1000D000D5150008D5150008D5150008D515000858
:1000E00007110008D515000800000000D51500080C
:1000F000D5150008D5150008D5150008D515000838
:10010000D5150008D5150008D5150008D515000827
:10011000D5150008D5150008D5150008D515000817
:1001200001E10008D5150008D5150008D51500080F
:10013000D5150008D5150008D5150008D5150008F7
:1001400000000000000000000000000000000000AF
:10015000D5150008D5150008D5150008D5150008D7
:10016000D5150008D5150008D5150008D5150008C7
:10017000D5150008E5100008D5150008D5150008AC
:10018000D5150008D5150008D5150008D5150008A7
:10019000D5150008D5150008D5150008D515000897
:1001A000D5150008D5150008D51500080000000079
:1001B000D5150008D5150008D5150008D515000877
:1001C000D5150008D515000800000000000000004B
:1001D0000000000000000000D5150008000000002D
:1001E000000000000000000000000000000000000F
:1001F0000000000000000000D5150008D51500081B
:10020000D5150008D515000800000000D515000818
:10021000D5150008D5150008D5150008D515000816
:10022000D515000800000000D515000800000000EA
:10023000D5150008D515000800000000D5150008E8
:10024000D5150008D5150008D5150008D5150008E6
:10025000D5150008D5150008D5150008D5150008D6
:10026000D5150008D5150008D5150008D5150008C6
:10027000D5150008D5150008D515000800000000A8
:10028000D5150008D5150008D5150008D5150008A6
:1002900000000000D5150008D5150008D515000888
:1002A000D5150008D5150008D5150008D515000886
:1002B000D5150008D5150008D5150008D515000876
:0C02C000D5150008D5150008D51500085C
:1002CC0010B5054C237833B9044B13B10448AFF384
:1002DC0000800123237010BD600200240000000088
:1002EC009C4F050808B5034B1BB103490348AFF3FA
:1002FC00008008BD00000000640200249C4F05082B
:10030C0010F8012B11F8013B012A28BF9A42F7D0B3
:10031C00D01A7047034613F8012B002AFBD1181A88
:10032C000138704753B94AB9002908BF00281CBFCF
:10033C004FF0FF314FF0FF3000F074B9ADF1080C05
:10034C006DE904CE00F006F8DDF804E0DDE90223E7
:10035C0004B070472DE9F047089D04468E46002BEB
:10036C004DD18A42944669D9B2FA82F252B101FA5D
:10037C0002F3C2F1200120FA01F10CFA02FC41EA6D
:10038C00030E94404FEA1C48210CBEFBF8F61FFAF2
:10039C008CF708FB16E341EA034306FB07F199428D
:1003AC000AD91CEB030306F1FF3080F01F81994240
:1003BC0040F21C81023E63445B1AA4B2B3FBF8F01A
:1003CC0008FB103344EA034400FB07F7A7420AD9A1
:1003DC001CEB040400F1FF3380F00A81A74240F2C9
:1003EC0007816444023840EA0640E41B00261DB134
:1003FC00D4400023C5E900433146BDE8F0878B4269
:10040C0009D9002D00F0EF800026C5E90001304627
:10041C003146BDE8F087B3FA83F6002E4AD18B4201
:10042C0002D3824200F2F980841A61EB03030120AB
:10043C009E46002DE0D0C5E9004EDDE702B9FFDE97
:10044C00B2FA82F2002A40F09280A1EB0C014FEA42
:10045C001C471FFA8CFE0126200CB1FBF7F307FB9F
:10046C00131140EA01410EFB03F0884208D91CEB42
:10047C00010103F1FF3802D2884200F2CB804346DF
:10048C00091AA4B2B1FBF7F007FB101144EA0144BE
:10049C000EFB00FEA64508D91CEB040400F1FF314D
:1004AC0002D2A64500F2BB800846A4EB0E0440EA3B
:1004BC0003409CE7C6F12007B34022FA07FC4CEA44
:1004CC00030C20FA07F401FA06F31C43F9404FEA37
:1004DC001C4900FA06F3B1FBF9F8200C1FFA8CFE4C
:1004EC0009FB181140EA014108FB0EF0884202FAA0
:1004FC0006F20BD91CEB010108F1FF3A80F0888061
:10050C00884240F28580A8F102086144091AA4B21D
:10051C00B1FBF9F009FB101144EA014100FB0EFE9E
:10052C008E4508D91CEB010100F1FF346CD28E45CD
:10053C006AD90238614440EA0840A0FB0294A1EB5E
:10054C000E01A142C846A64656D353D05DB1B3EBBB
:10055C00080261EB0E0101FA07F722FA06F3F140EB
:10056C001F43C5E9007100263146BDE8F087C2F192
:10057C002003D8400CFA02FC21FA03F3914001430A
:10058C004FEA1C471FFA8CFEB3FBF7F007FB103643
:10059C000B0C43EA064300FB0EF69E4204FA02F4EF
:1005AC0008D91CEB030300F1FF382FD29E422DD942
:1005BC00023863449B1B89B2B3FBF7F607FB163377
:1005CC0041EA034106FB0EF38B4208D91CEB0101F7
:1005DC0006F1FF3816D28B4214D9023E6144C91A77
:1005EC0046EA004638E72E46284605E70646E3E687
:1005FC001846F8E64B45A9D2B9EB020864EB0C0E91
:10060C000138A3E74646EAE7204694E74046D1E79F
:10061C00D0467BE7023B614432E7304609E764444D
:10062C00023842E7704700BF80B584B000AFF86075
:10063C00B9607A60FB68002B01D1012330E01822ED
:10064C000021F86854F0FEFAFB68BA681A60FB687F
:10065C007A68DA60FB683B225A74FB68DB68002B13
:10066C0016D1B86854F0D8FA03461A46FB68DA601B
:10067C00FB68DB68002B04D1FB6800221A600123A5
:10068C000EE0FB681B7C43F00203DAB2FB681A74C1
:10069C00FB681B7C43F00103DAB2FB681A7400237D
:1006AC0018461037BD4680BD90B589B000AFF860D4
:1006BC00B9607A600023FB61BB68BB61FB68002BEF
:1006CC0002D07B68002B01D1002337E0FB685A680D
:1006DC00FB681B689A4202D3FB6800225A60F868D8
:1006EC0000F07EF878617A697B689A4220D27B6947
:1006FC00002B01D1002321E07B697B6018E0BB69F2
:10070C005A1CBA61FA68D168FA685268541CF868C5
:10071C0044600A441B781370FB690133FB61FB686E
:10072C005A68FB681B689A4202D3FB6800225A6025
:10073C007B685A1E7A60002BE1D1FB69184624377E
:10074C00BD4690BD80B588B000AFF860B9607A60E6
:10075C000023FB61BB68BB61FB68002B02D07B688C
:10076C00002B01D1002337E0FB689A68FB681B68FB
:10077C009A4202D3FB6800229A60F86800F061F894
:10078C0078617A697B689A4220D27B69002B01D10F
:10079C00002321E07B697B6018E0FB68DA68FB686A
:1007AC009B68581CF96888601A44BB69591CB9616C
:1007BC0012781A70FB690133FB61FB689A68FB685D
:1007CC001B689A4202D3FB6800229A607B685A1E0F
:1007DC007A60002BE1D1FB6918462037BD4680BDFD
:1007EC0080B487B000AF786000237B617B68002BFE
:1007FC0001D100231FE07B685B683B617B689B68D1
:10080C00FB603A69FB689A4203D17B681B687B6189
:10081C000FE0FA683B699A4204D9FA683B69D31A2B
:10082C007B6106E07B681A68F9683B69CB1A134454
:10083C007B617B69013B18461C37BD465DF8047B28
:10084C00704780B487B000AF78607B68002B01D113
:10085C0000231DE07B685B683B617B689B68FB60E9
:10086C003A69FB689A4202D100237B610FE03A6936
:10087C00FB689A4204D93A69FB68D31A7B6106E09B
:10088C007B681A683969FB68CB1A13447B617B69F6
:10089C0018461C37BD465DF8047B704780B586B0A2
:1008AC0000AF78600B46FB700023FB607B68002B6D
:1008BC0002D14FF0FF3326E07868FFF7C2FF786172
:1008CC007B689B683B6119E07B681B683A699A42BC
:1008DC0001D300233B617B68DA683B6913441B78C6
:1008EC00FA789A4201D1FB680DE03B6901333B6118
:1008FC007B69013B7B61FB680133FB607B69002BEF
:10090C00E2D14FF0FF3318461837BD4680BD80B595
:10091C0088B000AFF860B9607A600023FB61FB68B7
:10092C00002B01D100234EE0F868FFF759FFB861A6
:10093C00F868FFF786FF78617B69002B0FD0FB68A6
:10094C005B7C1946F868FFF7A9FF0346002B1FDAFA
:10095C00BB69002B1CD07A697B689A4218D20023A1
:10096C0031E007F1130301221946F868FFF7EAFE9C
:10097C00BA68FB691344FA7C1A70BA68FB691344B1
:10098C001A78FB685B7C9A4208D0FB690133FB61E7
:10099C007B68013BFA699A42E3D300E000BF7B68B5
:1009AC00013BFA699A4205D1BA68FB6913440022EB
:1009BC001A7007E0FB690133FB61BA68FB691344E9
:1009CC0000221A70FB6918462037BD4680BD000016
:1009DC0080B58EB000AF07F1240300221A605A6074
:1009EC009A60DA601A615D4BD3F8E0305B4A43F0F1
:1009FC000203C2F8E030594BD3F8E03003F00203A5
:100A0C003B623B6A554BD3F8E030544A43F0400309
:100A1C00C2F8E030514BD3F8E03003F04003FB61F7
:100A2C00FB694E4BD3F8E0304C4A43F00803C2F854
:100A3C00E0304A4BD3F8E03003F00803BB61BB69EC
:100A4C00464BD3F8E030454A43F00103C2F8E0309E
:100A5C00424BD3F8E03003F001037B617B693F4BE1
:100A6C00D3F8E0303D4A43F01003C2F8E0303B4B82
:100A7C00D3F8E03003F010033B613B69374BD3F8FC
:100A8C00E030364A43F00403C2F8E030334BD3F87D
:100A9C00E03003F00403FB60FB68304BD3F8E0302C
:100AAC002E4A43F08003C2F8E0302C4BD3F8E030F0
:100ABC0003F08003BB60BB68284BD3F8E030274AB7
:100ACC0043F02003C2F8E030244BD3F8E03003F0BD
:100ADC0020037B607B6801237B620023BB620123C4
:100AEC00FB6207F1240319461D4804F077F840F225
:100AFC0001437B624FF40413BB620123FB6207F1D9
:100B0C0024031946174804F069F840237B6200233C
:100B1C00BB620123FB6207F124031946114804F060
:100B2C005DF803237B620023BB620123FB6207F1A8
:100B3C00240319460C4804F051F808237B62002367
:100B4C00BB620123FB6207F124031946074804F03A
:100B5C0045F800BF3837BD4680BD00BF0044025881
:100B6C0000100258000C025800040258001C0258D5
:100B7C0080B500AF41F058FD0346184680BD00001B
:100B8C0080B582B000AF00237B6000F0A1F800F0CC
:100B9C00FDF801F0B1FC00F021F8FFF719FF00F0AF
:100BAC0063F900F049FC3C210B4808F035FC11F0CE
:100BBC002DFF0DF013F80CF033FF02237B6000F0D7
:100BCC00C3F90CF003FA0DF0B9FA1E2001F026FD62
:100BDC00FFF7CEFFF9E700BF6003002480B59CB09F
:100BEC0000AF07F124034C220021184654F02AF8D8
:100BFC003B1D20220021184654F024F8042006F056
:100C0C008FFB00233B60304B9B692F4A23F44043FE
:100C1C0093612D4B9B6903F440433B603B6800BFE1
:100C2C00294B9B6903F40053B3F5005FF8D1274BB4
:100C3C009B6A23F00303254A43F0020393622123AA
:100C4C007B624FF48033BB620123FB630223BB64E2
:100C5C000223FB6405233B6568237B650123BB658D
:100C6C000423FB6502233B6608237B660023BB66DB
:100C7C000023FB6607F12403184606F0BBFB034672
:100C8C00002B01D000F05AF93F237B600323BB609B
:100C9C000023FB6008233B6140237B614023BB6145
:100CAC004FF48063FB6140233B623B1D03211846DC
:100CBC0006F04EFF0346002B01D000F03FF900BFB9
:100CCC007037BD4680BD00BF004802580044025832
:100CDC0080B584B000AF01F0D5FD01233B7000233B
:100CEC007B601F233B720023FB720023FB730023EA
:100CFC00BB7301237B7300237B700023BB728723A0
:100D0C007B7201233B733B46184601F0F3FD012334
:100D1C003B701D4B7B6017233B720323FB7200233C
:100D2C00FB730123BB7300237B7301237B700023B4
:100D3C00BB7200237B7200233B733B46184601F0C9
:100D4C00D9FD01233B704FF010437B6019233B729C
:100D5C000323FB720023FB730123BB7300237B7300
:100D6C0002237B700023BB7200237B7200233B7336
:100D7C003B46184601F0BEFD042001F09BFD00BF70
:100D8C001037BD4680BD00BF0000407080B485B0F8
:100D9C0000AF344B5B6903F40033002B1BD1BFF362
:100DAC004F8F00BFBFF36F8F00BF2E4B0022C3F8D5
:100DBC005022BFF34F8F00BFBFF36F8F00BF294B83
:100DCC005B69284A43F400335361BFF34F8F00BF74
:100DDC00BFF36F8F00E000BF224B5B6903F48033DD
:100DEC00002B38D11F4B0022C3F88420BFF34F8F48
:100DFC0000BF1C4BD3F88030FB60FB685B0BC3F36C
:100E0C000E03BB60FB68DB08C3F309037B60BB68A4
:100E1C005A0143F6E07313407A6892071149134361
:100E2C00C1F860327B685A1E7A60002BEFD1BB6828
:100E3C005A1EBA60002BE5D1BFF34F8F00BF094B90
:100E4C005B69084A43F480335361BFF34F8F00BF93
:100E5C00BFF36F8F00E000BF00BF1437BD465DF8D5
:100E6C00047B704700ED00E080B58AB000AF07F15D
:100E7C00140300221A605A609A60DA601A612C4BD3
:100E8C00D3F8E0302A4A43F00103C2F8E030284B93
:100E9C00D3F8E03003F001033B613B69244BD3F8FA
:100EAC00E030234A43F02003C2F8E030204BD3F863
:100EBC00E03003F02003FB60FB681D4BD3F8E030FF
:100ECC001B4A43F08003C2F8E030194BD3F8E030F2
:100EDC0003F08003BB60BB68154BD3F8E030144AB9
:100EEC0043F00403C2F8E030114BD3F8E03003F0C8
:100EFC0004037B607B6801237B610023BB610123BE
:100F0C00FB6107F1140319460A4803F067FE4FF41E
:100F1C0000537B610023BB610223FB6107F11403C7
:100F2C001946054803F05AFE00BF2837BD4680BD60
:100F3C0000440258000002580008025880B400AF68
:100F4C0072B600BFFEE7000080B582B000AF054B63
:100F5C007B60054A80217868FFF766FB00BF083785
:100F6C00BD4680BDBC020024D402002480B584B0F0
:100F7C0000AF78603960064BFB603A687968F868B6
:100F8C00FFF792FB034618461037BD4680BD00BFE5
:100F9C00BC02002480B584B000AF284BDB68FB603A
:100FAC00264B1B68FB720023BB72244B1B681A4632
:100FBC00F9682248FFF7ABFC0346FB72FB7A002B67
:100FCC0035D0FB681B780D2B04D1FB6801331B78E3
:100FDC000A2B2ED0FB7A013BFA68134400221A70BC
:100FEC0007221749F86853F025FF0346BB72BB7AFA
:100FFC00002B0CD1FB68073310220021184653F04C
:10100C00AFFF03467B60786853F0B4FD12E00C220E
:10101C000C49F86853F00EFF0346BB72BB7A002BE9
:10102C0008D1FB680C33184653F0BAFD02E000BF40
:10103C0000E000BF1037BD4680BD00BFBC020024DD
:10104C00B44F0508BC4F050880B483B000AF0A4B01
:10105C00D3F8F430084A43F00203C2F8F430064BDC
:10106C00D3F8F43003F002037B607B6800BF0C37CD
:10107C00BD465DF8047B70470044025880B400AF55
:10108C00FEE780B400AFFEE780B400AFFEE780B4AB
:10109C0000AFFEE780B400AFFEE780B400AF00BF46
:1010AC00BD465DF8047B704780B400AF00BFBD4601
:1010BC005DF8047B704780B400AF00BFBD465DF89F
:1010CC00047B704780B500AF01F088FA01203CF03A
:1010DC004DFD00BF80BD000080B500AF024804F09C
:1010EC00A0FF00BF80BD00BF841A002480B500AFF4
:1010FC00012003F04CFF00BF80BD80B500AF4FF462
:10110C00806003F044FF00BF80BD80B400AF0123BA
:10111C001846BD465DF8047B704780B582B000AFC1
:10112C007860396053F04EFD034616221A604FF07A
:10113C00FF3318460837BD4680BD80B582B000AF7E
:10114C0078604FF0FF317868FFF7E7FFFEE70000AB
:10115C0080B586B000AF7860144A154BD31A7B610A
:10116C007B693B61134B1B68002B02D1114B124A5C
:10117C001A60104B1A687B6813443A699A4207D27A
:10118C0053F020FD03460C221A604FF0FF3309E0A8
:10119C00084B1B68FB60074B1A687B681344054AB5
:1011AC001360FB6818461837BD4680BD0000052447
:1011BC0000040000580300240827032480B400AF67
:1011CC00324BD3F88830314A43F47003C2F888307C
:1011DC002F4B1B6803F00F03062B07D82C4B1B68F7
:1011EC0023F00F032A4A43F007031360294B1B68B3
:1011FC00284A43F001031360264B00221A61254B49
:10120C001A682449244B13400B60214B1B6803F0D4
:10121C000803002B07D01E4B1B6823F00F031C4A3E
:10122C0043F0070313601B4B00229A61194B0022F9
:10123C00DA61184B00221A62164B184A9A62154B47
:10124C00174ADA62134B174A1A63124B00225A637D
:10125C00104B144A9A630F4B0022DA630D4B114A60
:10126C001A640C4B00225A640A4B1B68094A23F47B
:10127C0080231360074B00221A660B4B43F2D202F9
:10128C001A6000BFBD465DF8047B704700ED00E0BE
:10129C0000200052004402587FEDF6EA00020202E0
:1012AC000000FF01800201010040005280B485B0B3
:1012BC0000AF0346FB71FB799AB20B4B1B68DB6AE0
:1012CC009BB212FB03F39BB2084AA2FB03235B09FC
:1012DC00FB81054B1B68FA89DA6300BF1437BD46E6
:1012EC005DF8047B704700BF600300241F85EB5141
:1012FC0080B582B000AF0346FB80FB88012B3ED14A
:10130C0001214B4803F012FE0346012B1BD14FF475
:10131C008061474803F00AFE0346002B09D1454B78
:10132C00B3F900309BB205339BB21AB2414B1A8011
:10133C0062E0404BB3F900309BB2053B9BB21AB252
:10134C003C4B1A8058E04FF48061394803F0EEFDB5
:10135C000346002B09D1374BB3F900309BB2053B48
:10136C009BB21AB2334B1A8046E0324BB3F90030C1
:10137C009BB205339BB21AB22E4B1A803CE04FF451
:10138C0080612B4803F0D2FD0346012B1AD10121B9
:10139C00274803F0CBFD0346002B09D1254BB3F9AD
:1013AC0000309BB205339BB21AB2224B1A8023E059
:1013BC00204BB3F900309BB2053B9BB21AB21D4BCC
:1013CC001A8019E001211A4803F0B0FD0346012BE5
:1013DC0009D1184BB3F900309BB2053B9BB21AB242
:1013EC00144B1A8008E0134BB3F900309BB2053351
:1013FC009BB21AB20F4B1A800E4BB3F90030642B10
:10140C0002DD0C4B64221A800A4BB3F90030002B1E
:10141C0002DA084B00221A80064BB3F90030DBB21B
:10142C001846FFF743FF00BF0837BD4680BD00BF1D
:10143C00000C02585C03002480B58CB000AF07F19F
:10144C000C0324220021184653F0FCFB3B460022DF
:10145C001A605A609A60214B214A1A601F4B002275
:10146C005A601E4B00229A601C4B4FF0FF32DA6020
:10147C001A4B00221A61194B00229A610323FB605C
:10148C0000233B6101237B610023BB610023FB61D3
:10149C0000233B6201237B620023BB620023FB62BF
:1014AC0007F10C0319460D4807F010FF0346002BFB
:1014BC0001D0FFF743FD00233B600023BB603B469C
:1014CC001946064808F002F90346002B01D0FFF735
:1014DC0035FD00BF3037BD4680BD00BF6003002422
:1014EC0000E0004080B58AB000AF786007F11403CB
:1014FC0000221A605A609A60DA601A617B681B6875
:10150C001A4A93422DD11A4BD3F8EC30184A43F0B7
:10151C008073C2F8EC30164BD3F8EC3003F08073C8
:10152C003B613B69124BD3F8E030114A43F0200386
:10153C00C2F8E0300E4BD3F8E03003F02003FB6030
:10154C00FB68C0237B610223BB610023FB6100238A
:10155C003B620D237B6207F114031946054803F027
:10156C003DFB00BF2837BD4680BD00BF00E00040FA
:10157C000044025800140258DFF834D0FFF71EFE66
:10158C000C480D490D4A002302E0D458C4500433D2
:10159C00C4188C42F9D30A4A0A4C002301E01360A8
:1015AC000432A242FBD353F013FBFFF7E9FA704766
:1015BC000000052400000024600200244C9A050859
:1015CC006002002408270324FEE780B58AB000AF30
:1015DC00786000237B614FF44053FB610023BB61B7
:1015EC004FF000537B6201233B6207F1140341F27D
:1015FC0088321946786804F0B1F90346002B02D002
:10160C004FF0FF330EE00023FB6007F10C0319468B
:10161C00786804F01BFB0346002B02D04FF0FF331D
:10162C0000E0002318462837BD4680BD80B588B041
:10163C0000AF786039604FF08073FB604FF440531B
:10164C007B614FF480533B614FF00053FB610223ED
:10165C00BB6107F10C0341F288321946786804F03B
:10166C007DF90346002B02D04FF0FF330CE041F222
:10167C0088323968786804F045FA0346002B02D0AA
:10168C004FF0FF3300E0002318462037BD4680BDE5
:10169C0080B58EB000AFF8607A603B600B467B8102
:1016AC000323BB623B68FB6202233B637B687B6367
:1016BC0007F1280341F288321946F86804F00FF953
:1016CC000346002B02D04FF0FF333AE04FF080730B
:1016DC007B614FF44053FB614FF48053BB614FF07F
:1016EC0000537B6202233B6207F1140341F2883200
:1016FC001946F86804F032F90346002B02D04FF07B
:10170C00FF331EE007F10A0341F288321946F868EC
:10171C0004F085F90346002B02D04FF0FF3310E0A4
:10172C0000233B6307F1280341F288321946F8681D
:10173C0004F0D5F80346002B02D04FF0FF3300E045
:10174C00002318463837BD4680BD000080B58EB0EA
:10175C0000AFF860B9607A603B6000237B63BB68C4
:10176C00012B02D8FB68002B03D06FF001037B63C5
:10177C009DE07B68022B05D102233B634E4B02227A
:10178C001A6000E000BF4D49FA6813465B00134431
:10179C00DB000B440C337A681A604849FA6813462C
:1017AC005B001344DB000B443A681A604349FA6847
:1017BC0013465B001344DB000B4404333A6C1A6091
:1017CC003F4B404A1A60404B404A1A603C4800F07C
:1017DC0035F900224FF400513D4803F0BFFB0122C4
:1017EC004FF480613B4803F0B9FB01224FF40041F8
:1017FC00394803F0B3FB344800F062FA304800F08B
:10180C00FBF80346002B03D06FF003037B630AE065
:10181C003A6C39682A4800F061F80346002B02D074
:10182C006FF003037B637B6B002B40D101233B7573
:10183C0001237B750323BB7507F1140319460020A4
:10184C0000F06CFA0346002B03D04FF0FF337B63A0
:10185C002DE0002000F054FB0346002B03D06FF06A
:10186C0003037B6323E00023BB613B68FB61002324
:10187C003B623B6C7B623B6BBB624FF0E043FB62B9
:10188C0007F118031A4600210D4800F073F80346BF
:10189C00002B02D06FF003037B630849FA681346F0
:1018AC005B001344DB000B44143301221A607B6B86
:1018BC0018463837BD4680BDAC030024C004002454
:1018CC001804002400100050B00300240010005233
:1018DC0000100258000C02580018025880B584B051
:1018EC0000AFF860B9607A60FB68214A1A60FB6847
:1018FC0000225A60FB6800229A60FB680022DA60C2
:10190C00FB6800221A61FB6828225A61FB682A22B4
:10191C00DA61BB6803F13502FB685A62BB6803F1FC
:10192C004A02FB68DA62FB6809229A61FB680B22A7
:10193C001A627B6803F10B02FB689A627B6803F105
:10194C000D02FB681A63FB68FF2283F83420FB68E6
:10195C00FF2283F83520FB68FF2283F83620F868D5
:10196C0003F030FB034618461037BD4680BD00BF60
:10197C000010005080B592B000AFF860B9607A608A
:10198C007B681B687B617B685B68BB617B689B6861
:10199C00FB617B68DB683B627B681B697B62FF23B6
:1019AC00BB620023FB624FF4C0633B6307237B6382
:1019BC007B685B69BB637B685A687B681B68D31A5E
:1019CC00FB637B68DA687B689B68D31A3B640023F3
:1019DC0087F84430002387F84530002387F84630D9
:1019EC0007F11403BA681946F86803F0C5FB0346FF
:1019FC0018464837BD4680BD80B5B0B000AF7860A2
:101A0C004FF00053FB6005233B63A0237B63022351
:101A1C00BB630223FB6353233B640023FB6400235F
:101A2C00BB6400237B6407F10C03184606F0F0FB43
:101A3C0003461846C037BD4680BD000080B592B045
:101A4C0000AF78607B681B68944A934240F0E0805A
:101A5C00934BD3F8E430924A43F00803C2F8E430D5
:101A6C008F4BD3F8E43003F008033B633B6B8C4B98
:101A7C00D3F8E0308A4A43F00103C2F8E030884BD7
:101A8C00D3F8E03003F00103FB62FB6A844BD3F81C
:101A9C00E030834A43F00203C2F8E030804BD3F8C5
:101AAC00E03003F00203BB62BB6A7D4BD3F8E0303D
:101ABC007B4A43F00403C2F8E030794BD3F8E030B2
:101ACC0003F004037B627B6A754BD3F8E030744AF5
:101ADC0043F00803C2F8E030714BD3F8E03003F068
:101AEC0008033B623B6A6E4BD3F8E0306C4A43F020
:101AFC001003C2F8E0306A4BD3F8E03003F0100367
:101B0C00FB61FB69664BD3F8E030654A43F0400358
:101B1C00C2F8E030624BD3F8E03003F04003BB6115
:101B2C00BB695F4BD3F8E0305D4A43F08003C2F8E9
:101B3C00E0305B4BD3F8E03003F080037B617B69D2
:101B4C000223BB630023FB6302233B640E237B64F1
:101B5C0058237B6307F134031946524803F03EF8CF
:101B6C004FF440737B6307F1340319464E4803F07E
:101B7C0035F8C0237B6307F1340319464B4803F057
:101B8C002DF808237B6307F134031946484803F00A
:101B9C0025F849F602037B6307F1340319464548DF
:101BAC0003F01CF880237B6307F134031946424889
:101BBC0003F014F84FF40E437B6307F1340319461A
:101BCC003E4803F00BF80D237B644FF480737B636A
:101BDC0007F134031946334803F000F809237B64FA
:101BEC0010237B6307F134031946344802F0F6FFE7
:101BFC002B4BD3F88C302A4A43F00803C2F88C30B4
:101C0C00274BD3F88C30264A23F00803C2F88C30CB
:101C1C00234BD3F8E030224A43F04003C2F8E030C3
:101C2C001F4BD3F8E03003F040033B613B691C4B86
:101C3C00D3F8E0301A4A43F01003C2F8E030184BE6
:101C4C00D3F8E03003F01003FB60FB684FF4005353
:101C5C007B630123BB6307F134031946154802F07B
:101C6C00BDFF4FF480637B630123BB6307F1340337
:101C7C0019460F4802F0B2FF4FF400437B63012377
:101C8C00BB6307F1340319460B4802F0A7FF282069
:101C9C0000F0C4FC00BF4837BD4680BD00100050AA
:101CAC000044025800000258000402580008025870
:101CBC00000C02580010025800180258001C025860
:101CCC0080B485B000AF78607B681B68114A934282
:101CDC001AD1114BD3F8D4300F4A43F01003C2F889
:101CEC00D4300D4BD3F8D43003F01003FB60FB68F9
:101CFC00094BDB6F084A43F01003D367064BDB6FCD
:101D0C00054A23F01003D36700BF1437BD465DF8B6
:101D1C00047B7047001000520044025880B58AB012
:101D2C0000AF786039607B68002B03D06FF0010343
:101D3C007B625DE0314A7B6812F83330002B55D161
:101D4C007B685C2202FB03F32D4A1344184600F017
:101D5C002BFA0223FB604FF08073FB61FB6993FA53
:101D6C00A3F3BB61BB693B623B6A002B01D120230F
:101D7C0003E03B6AB3FA83F3DBB2BB6000233B6145
:101D8C007B685C2202FB03F31D4A1344184600F0E7
:101D9C0039F80346002B03D06FF003037B6227E076
:101DAC007B685C2202FB03F3154A134407F108021B
:101DBC001146184600F04AF80346002B03D06FF08A
:101DCC0003037B6214E03B6819783B685A783B68E4
:101DDC009B78786800F0C0F80346002B03D06FF0B6
:101DEC0004037B6204E000237B6201E000237B623E
:101DFC007B6A18462837BD4680BD00BF080000240A
:101E0C00D804002480B5B0B000AF78604FF00073F8
:101E1C00FB6020237B6505233B6150237B610523FD
:101E2C00BB610223FB6102233B620023FB620023A4
:101E3C00BB6200237B6207F10C03184606F0E8F93D
:101E4C0003461846C037BD4680BD000080B588B03B
:101E5C0000AF786039607B68284A1A60786803F0B4
:101E6C000DFD7B6804225A607B6800229A607B68B7
:101E7C004FF08062DA603B681A687B681A617B6895
:101E8C0004225A617B6800229A617B680022DA6125
:101E9C007B6800221A623B685A687B685A623B680E
:101EAC009A687B689A627B684FF08052DA627B6832
:101EBC004FF4C872DA637B6817221A63786803F0F0
:101ECC0017FC0346FB77FB7F002B11D10323FB6030
:101EDC0006233B6100237B610123BB6107F10C03EB
:101EEC0041F288321946786803F0F9FC0346FB7717
:101EFC00FB7F18462037BD4680BD00BF00A00052B6
:101F0C0080B584B000AF78600023FB607B68002B49
:101F1C0003D06FF00103FB6014E07B685C2202FBD2
:101F2C0003F30B4A13441846FFF74FFB0346002BF1
:101F3C0003D06FF00403FB6004E0064A7B680221C7
:101F4C0002F83310FB6818461037BD4680BD00BF41
:101F5C00D80400240800002480B58AB000AF786053
:101F6C00084611461A460346FB700B46BB701346D7
:101F7C007B7000237B627B68002B03D06FF0010326
:101F8C007B6207E1864A7B6812F83330022B03D15F
:101F9C006FF019037B62FDE0814A7B6812F83330E5
:101FAC00002B18D07E4A7B68DB0013445B78FA78F0
:101FBC009A4210D17A4A7B68DB0013449B78BA783A
:101FCC009A4208D1764A7B68DB001344DB787A7836
:101FDC009A4200F0DF807B685C2202FB03F3714ABB
:101FEC00134407F10A0211461846FFF71FFB03467C
:101FFC00002B03D06FF004037B62B1E0684A7B686E
:10200C0012F83330002B04D106233B620123FB6111
:10201C0002E06FF001037B62FB78012B02D06FF0C2
:10202C0001037B62BB78002B05D17B8923F0040371
:10203C009BB27B8104E07B8943F004039BB27B81E0
:10204C007B891BB223F003031AB27B781BB21343B8
:10205C001BB29BB27B817B685C2202FB03F3514A6F
:10206C00981879893B6AFA69FFF712FB0346002B33
:10207C0003D06FF004037B6272E0BB78002B39D184
:10208C007B78032B40D801A252F823F0EB200008F8
:10209C00D5200008A9200008BF200008414A7B6811
:1020AC005C2101FB03F3134420334FF400321A601C
:1020BC002BE03C4A7B685C2101FB03F31344203387
:1020CC004FF440321A6020E0364A7B685C2101FBF9
:1020DC0003F3134420334FF480221A6015E0314A85
:1020EC007B685C2101FB03F3134420334FF4A022E3
:1020FC001A600AE02B4A7B685C2101FB03F3134452
:10210C00203300221A6000E000BF7B685C2202FBD7
:10211C0003F3244A1344184603F0EAFA0346002B4F
:10212C0003D06FF003037B621AE00323FB600623EA
:10213C003B6100237B610123BB617B685C2202FB5A
:10214C0003F3184A134407F10C0141F28832184684
:10215C0003F0C5FB0346002B02D06FF003037B6238
:10216C007B6A002B16D10E4A7B68012102F83310D2
:10217C000B4A7B68DB00134401225A70084A7B68C7
:10218C00DB001344BA789A70054A7B68DB00134471
:10219C007A78DA707B6A18462837BD4680BD00BF56
:1021AC0008000024D804002480B594B000AF7860F7
:1021BC00BA4BD3F8D430B94A43F40023C2F8D43024
:1021CC00B64BD3F8D43003F40023BB63BB6BB34BD7
:1021DC00D3F8D430B14A43F00103C2F8D430AF4B3A
:1021EC00D3F8D43003F001037B637B6BAB4BD3F898
:1021FC00E030AA4A43F02003C2F8E030A74BD3F8F2
:10220C00E03003F020033B633B6BA44BD3F8E0308E
:10221C00A24A43F02003C2F8E030A04BD3F8E030E0
:10222C0003F02003FB62FB6A9C4BD3F8E0309B4A23
:10223C0043F04003C2F8E030984BD3F8E03003F0A1
:10224C004003BB62BB6A954BD3F8E030934A43F032
:10225C002003C2F8E030914BD3F8E03003F02003B8
:10226C007B627B6A8D4BD3F8E0308C4A43F02003C1
:10227C00C2F8E030894BD3F8E03003F020033B6226
:10228C003B6A864BD3F8E030844A43F02003C2F813
:10229C00E030824BD3F8E03003F02003FB61FB69A4
:1022AC007E4BD3F8E0307D4A43F02003C2F8E03097
:1022BC007A4BD3F8E03003F02003BB61BB69774B5A
:1022CC00D3F8E030754A43F04003C2F8E030734B6A
:1022DC00D3F8E03003F040037B617B696F4BD3F89C
:1022EC00E0306E4A43F04003C2F8E0306B4BD3F859
:1022FC00E03003F040033B613B69684BD3F8E030BE
:10230C00664A43F04003C2F8E030644BD3F8E03047
:10231C0003F04003FB60FB68604BD3F8E0305F4A8E
:10232C0043F04003C2F8E0305C4BD3F8E03003F0EC
:10233C004003BB60BB68594BDB6F584A43F4002326
:10234C00D367564BDB6F554A23F40023D3674FF406
:10235C008053FB6302233B6401237B640323BB6434
:10236C000323FB6407F13C0319464D4802F036FC8D
:10237C0000237B644FF48053FB630923FB6407F158
:10238C003C031946474802F029FC1023FB63092340
:10239C00FB6407F13C031946424802F01FFC012381
:1023AC00FB630923FB6407F13C0319463D4802F02B
:1023BC0015FC0223FB630923FB6407F13C0319465C
:1023CC00384802F00BFC0423FB630923FB6407F180
:1023DC003C031946334802F001FC0823FB63092334
:1023EC00FB6407F13C0319462E4802F0F7FB01236E
:1023FC00FB630923FB6407F13C031946284802F0F0
:10240C00EDFB0223FB630923FB6407F13C03194634
:10241C00234802F0E3FB4FF48063FB630323FB646C
:10242C0007F13C0319461E4802F0D8FB4FF4006339
:10243C00FB630923FB6407F13C031946184802F0BF
:10244C00CDFB194B4FF080425A60174B4FF0805226
:10245C009A60154B8022DA60134B40F202225A61CB
:10246C00114B40F608029A610F4B2022DA610E4B99
:10247C0080221A620C4B4FF000725A620A4B0022F7
:10248C00DA62094B00221A63074B80229A62064BD0
:10249C0000225A63044B002208E000BF004402589B
:1024AC000018025800140258340500249A63104B8B
:1024BC00104A1A607B680E4ADA640D4A7B68136412
:1024CC000B4803F031F800220721962000F0A5F903
:1024DC00002207217A2000F0A0F9962000F0B7F92D
:1024EC007A2000F0B4F900BF5037BD4680BD00BF64
:1024FC00340500244000005280B582B000AF0320A8
:10250C0000F080F905F0DAFC0246154B9B691B0ABA
:10251C0003F00F031349CB5C03F01F0322FA03F300
:10252C007B600F4B9B6903F00F030E4AD35C03F0E7
:10253C001F037A6822FA03F30B4A13600B4A7B6879
:10254C001360002000F014F80346002B01D0012387
:10255C0002E0FEF779FD002318460837BD4680BD22
:10256C0000440258FC560508040000240000002416
:10257C0080B582B000AF7860154B1B78002B01D171
:10258C00012321E0134B1A68114B1B7819464FF4A9
:10259C007A73B3FBF1F3B2FBF3F3184600F065F971
:1025AC000346002B01D001230EE07B680F2B0AD8C9
:1025BC00002279684FF0FF3000F02FF9064A7B6853
:1025CC001360002300E0012318460837BD4680BD88
:1025DC0014000024000000241000002480B400AF7C
:1025EC00064B1B781A46064B1B681344044A1360AF
:1025FC0000BFBD465DF8047B704700BF140000248B
:10260C00A005002480B400AF034B1B681846BD46E0
:10261C005DF8047B704700BFA005002480B584B032
:10262C0000AF7860FFF7EEFFB8607B68FB60FB687B
:10263C00B3F1FF3F05D00A4B1B781A46FB681344D5
:10264C00FB6000BFFFF7DEFF0246BB68D31AFA68D7
:10265C009A42F7D800BF00BF1037BD4680BD00BFFF
:10266C001400002480B485B000AF78607B6803F060
:10267C000703FB600B4BDB68BB60BA684FF6FF03CC
:10268C001340BB60FB681A02BB681A43064B13432A
:10269C00BB60044ABB68D36000BF1437BD465DF80D
:1026AC00047B704700ED00E00000FA0580B400AF39
:1026BC00044BDB681B0A03F007031846BD465DF8A4
:1026CC00047B704700ED00E080B483B000AF03469C
:1026DC00FB80B7F90630002B0BDBFB8803F01F02E5
:1026EC000749B7F906305B09012000FA02F241F8FC
:1026FC00232000BF0C37BD465DF8047B704700BF3C
:10270C0000E100E080B483B000AF03463960FB8089
:10271C00B7F90630002B0ADB3B68DAB20C49B7F983
:10272C0006301201D2B20B4483F800230AE03B6856
:10273C00DAB20849FB8803F00F03043B1201D2B252
:10274C000B441A7600BF0C37BD465DF8047B70470E
:10275C0000E100E000ED00E080B489B000AFF8606B
:10276C00B9607A60FB6803F00703FB61FB69C3F196
:10277C000703042B28BF0423BB61FB690433062B1E
:10278C0002D9FB69033B00E000237B614FF0FF3271
:10279C00BB6902FA03F3DA43BB681A407B699A40BF
:1027AC004FF0FF317B6901FA03F3D9437B680B408F
:1027BC00134318462437BD465DF8047B7047000070
:1027CC0080B582B000AF78607B68013BB3F1807F4D
:1027DC0001D301230FE00A4A7B68013B53600F21B0
:1027EC004FF0FF30FFF78EFF054B00229A60044B31
:1027FC0007221A60002318460837BD4680BD00BF6B
:10280C0010E000E080B582B000AF78607868FFF728
:10281C0029FF00BF0837BD4680BD80B586B000AF2C
:10282C000346B9607A60FB81FFF740FF78617A68F4
:10283C00B9687869FFF790FF0246B7F90E30114678
:10284C001846FFF75FFF00BF1837BD4680BD80B547
:10285C0082B000AF0346FB80B7F906301846FFF78D
:10286C0033FF00BF0837BD4680BD80B582B000AFD6
:10287C0078607868FFF7A4FF034618460837BD4612
:10288C0080BD000080B400AFBFF35F8F00BF074B6B
:10289C005B6A064A23F480335362054B00225A606C
:1028AC0000BFBD465DF8047B704700BF00ED00E043
:1028BC0090ED00E080B483B000AF78600B4A7B6889
:1028CC0043F0010353600A4B5B6A094A43F48033BB
:1028DC005362BFF34F8F00BFBFF36F8F00BF00BFBA
:1028EC000C37BD465DF8047B704700BF90ED00E0EF
:1028FC0000ED00E080B483B000AF78607B685A785C
:10290C001D4B9A607B681B78002B29D01A4A7B6878
:10291C005B68D3607B681B7B1A077B68DB7A1B06C2
:10292C001A437B689B7ADB041A437B685B7B9B04B2
:10293C001A437B689B7B5B041A437B68DB7B1B0421
:10294C001A437B685B7A1B021A437B681B7A5B0019
:10295C0013437A6812781146074A0B43136105E05A
:10296C00054B0022DA60044B00221A6100BF0C37C1
:10297C00BD465DF8047B704790ED00E080B586B0F5
:10298C0000AF7860FFF73EFE38617B68002B01D109
:10299C00012314E37B681B68664A93424AD07B6828
:1029AC001B68654A934245D07B681B68634A934217
:1029BC0040D07B681B68624A93423BD07B681B68A3
:1029CC00604A934236D07B681B685F4A934231D091
:1029DC007B681B685D4A93422CD07B681B685C4A01
:1029EC00934227D07B681B685A4A934222D07B685B
:1029FC001B68594A93421DD07B681B68574A934207
:102A0C0018D07B681B68564A934213D07B681B68AE
:102A1C00544A93420ED07B681B68534A934209D0A8
:102A2C007B681B68514A934204D07B681B68504AF0
:102A3C00934201D1012300E00023002B00F03C81E4
:102A4C007B68022283F835207B68002283F83420CF
:102A5C007B681B68374A93424AD07B681B68364AAE
:102A6C00934245D07B681B68344A934240D07B68C4
:102A7C001B68334A93423BD07B681B68314A9342B4
:102A8C0036D07B681B68304A934231D07B681B6818
:102A9C002E4A93422CD07B681B682D4A934227D038
:102AAC007B681B682B4A934222D07B681B682A4A9E
:102ABC0093421DD07B681B68284A934218D07B68D0
:102ACC001B68274A934213D07B681B68254A9342A4
:102ADC000ED07B681B68244A934209D07B681B6824
:102AEC00224A934204D07B681B68214A934208D146
:102AFC007B681B681A687B681B6822F001021A60ED
:102B0C0007E07B681B681A687B681B6822F001026F
:102B1C001A602FE0FFF776FD02463B69D31A052BAE
:102B2C0028D97B6820225A657B68032283F83520DC
:102B3C00012344E210000240280002404000024001
:102B4C00580002407000024088000240A000024081
:102B5C00B800024010040240280402404004024025
:102B6C00580402407004024088040240A004024051
:102B7C00B80402407B681B681B6803F00103002B40
:102B8C00C8D17B681B681B687B617A69844B1340D6
:102B9C007B617B689A687B68DB681A437B681B697E
:102BAC001A437B685B691A437B689B691A437B6891
:102BBC00DB691A437B681B6A13437A6913437B6195
:102BCC007B685B6A042B07D17B68DA6A7B681B6BBA
:102BDC0013437A6913437B617B685B68282B03D9A9
:102BEC007B685B682E2B1FD97B685B683E2B03D9F7
:102BFC007B685B68422B17D97B685B68462B03D9D3
:102C0C007B685B68482B0FD97B685B684E2B03D9BC
:102C1C007B685B68522B07D97B685B68732B05D983
:102C2C007B685B68772B01D8012300E00023002B25
:102C3C0003D07B6943F480137B617B681B687A69E2
:102C4C001A607B681B685B697B617B6923F00703F7
:102C5C007B617B685B6A7A6913437B617B685B6A27
:102C6C00042B17D17B689B6A7A6913437B617B6861
:102C7C00DB6A002B0ED0786801F026FE0346002B91
:102C8C0008D07B6840225A657B68012283F8352086
:102C9C00012394E17B681B687A695A61786801F0BA
:102CAC0061FD0346BB607B68DB6D03F01F033F22B5
:102CBC009A40BB689A60CAE07B681B68394A9342A9
:102CCC0022D07B681B68384A93421DD07B681B68F6
:102CDC00364A934218D07B681B68354A934213D00E
:102CEC007B681B68334A93420ED07B681B68324A60
:102CFC00934209D07B681B68304A934204D07B68AE
:102D0C001B682F4A934201D1012300E00023002BC2
:102D1C0000F094807B681B68224A934221D07B6828
:102D2C001B68214A93421CD07B681B681F4A934244
:102D3C0017D07B681B681E4A934212D07B681B68B5
:102D4C001C4A93420DD07B681B681B4A934208D0E7
:102D5C007B681B68194A934203D07B681B68184A2E
:102D6C00934200BF7B68022283F835207B680022E7
:102D7C0083F834207B681B681B687B617A69114B74
:102D8C0013407B617B689B68402B1DD07B689B68E4
:102D9C00802B02D14FF4804317E0002315E000BFD5
:102DAC003F8010FE085402581C54025830540258EC
:102DBC0044540258585402586C54025880540258C7
:102DCC00945402580F00FEFF10237A68D268D20880
:102DDC001A437B681B69DB081A437B685B69DB0859
:102DEC001A437B689B69DB081A437B68DB69DB0849
:102DFC001A437B681B6A1B0913437A6913437B6173
:102E0C007B681B687A691A607B681B681A466E4B74
:102E1C0013446E4AA2FB03231B099A007B68DA65F4
:102E2C00786801F09FFC0346FB607B68DB6D03F068
:102E3C001F0301229A40FB685A6008E07B6840221D
:102E4C005A657B68032283F835200123B7E07B6841
:102E5C001B685F4A934272D07B681B685D4A934241
:102E6C006DD07B681B685C4A934268D07B681B689A
:102E7C005A4A934263D07B681B68594A93425ED08E
:102E8C007B681B68574A934259D07B681B68564A2B
:102E9C00934254D07B681B68544A93424FD07B6852
:102EAC001B68534A93424AD07B681B68514A934231
:102EBC0045D07B681B68504A934240D07B681B68A6
:102ECC004E4A93423BD07B681B684D4A934236D0A6
:102EDC007B681B684B4A934231D07B681B684A4A1B
:102EEC0093422CD07B681B68484A934227D07B685E
:102EFC001B68474A934222D07B681B68454A934221
:102F0C001DD07B681B68444A934218D07B681B68B1
:102F1C00424A934213D07B681B68414A93420ED0BD
:102F2C007B681B683F4A934209D07B681B683E4A0A
:102F3C00934204D07B681B683C4A934201D1012325
:102F4C0000E00023002B32D0786801F039FD7B685B
:102F5C009B68802B02D17B6800225A607B685A6880
:102F6C007B681B6ED2B21A607B685B6E7A68926E5D
:102F7C005A607B685B68002B10D07B685B68082B01
:102F8C000CD8786801F0B6FD7B68DB6E00221A6005
:102F9C007B681B6F7A68526F5A6008E07B6800226E
:102FAC00DA667B6800221A677B6800225A677B68A6
:102FBC0000225A657B68012283F8352000231846CD
:102FCC001837BD4680BD00BFF8ABFDA7CDCCCCCC2F
:102FDC00100002402800024040000240580002400D
:102FEC007000024088000240A0000240B80002407D
:102FFC0010040240280402404004024058040240DD
:10300C007004024088040240A0040240B80402404C
:10301C00085402581C540258305402584454025854
:10302C00585402586C540258805402589454025804
:10303C0080B586B000AFF860B9607A603B60002361
:10304C00FB75FB68002B01D1012326E2FB6893F88A
:10305C003430012B01D102231FE2FB68012283F8DB
:10306C003420FB6893F83530DBB2012B40F00A8238
:10307C00FB68022283F83520FB6800225A65FB6846
:10308C001B68684A93424AD0FB681B68664A9342A5
:10309C0045D0FB681B68654A934240D0FB681B68AF
:1030AC00634A93423BD0FB681B68624A934236D01A
:1030BC00FB681B68604A934231D0FB681B685F4A0F
:1030CC0093422CD0FB681B685D4A934227D0FB6867
:1030DC001B685C4A934222D0FB681B685A4A934295
:1030EC001DD0FB681B68594A934218D0FB681B68BB
:1030FC00574A934213D0FB681B68564A93420ED032
:10310C00FB681B68544A934209D0FB681B68534AFE
:10311C00934204D0FB681B68514A934208D1FB6868
:10312C001B681A68FB681B6822F001021A6007E032
:10313C00FB681B681A68FB681B6822F001021A60A6
:10314C003B687A68B968F86801F060F9FB681B683D
:10315C00344A93424AD0FB681B68334A934245D0A9
:10316C00FB681B68314A934240D0FB681B68304AAD
:10317C0093423BD0FB681B682E4A934236D0FB68C7
:10318C001B682D4A934231D0FB681B682B4A934233
:10319C002CD0FB681B682A4A934227D0FB681B681B
:1031AC00284A934222D0FB681B68274A93421DD0C1
:1031BC00FB681B68254A934218D0FB681B68244A9D
:1031CC00934213D0FB681B68224A93420ED0FB68D3
:1031DC001B68214A934209D0FB681B681F4A934223
:1031EC0004D0FB681B681E4A934201D1012300E006
:1031FC000023002B36D0FB681B681B6823F01E02D3
:10320C00FB681B6842F016021A60FB681B6C002BF3
:10321C003ED0FB681B681A68FB681B6842F008020A
:10322C001A6035E0100002402800024040000240C5
:10323C00580002407000024088000240A00002408A
:10324C00B80002401004024028040240400402402E
:10325C00580402407004024088040240A00402405A
:10326C00B8040240FB681B681B6823F00E02FB6865
:10327C001B6842F00A021A60FB681B6C002B07D01B
:10328C00FB681B681A68FB681B6842F004021A6032
:10329C00FB681B68834A934272D0FB681B68824AA6
:1032AC0093426DD0FB681B68804A934268D0FB68E0
:1032BC001B687F4A934263D0FB681B687D4A93422C
:1032CC005ED0FB681B687C4A934259D0FB681B6834
:1032DC007A4A934254D0FB681B68794A93424FD088
:1032EC00FB681B68774A93424AD0FB681B68764A96
:1032FC00934245D0FB681B68744A934240D0FB68EC
:10330C001B68734A93423BD0FB681B68714A93421B
:10331C0036D0FB681B68704A934231D0FB681B683F
:10332C006E4A93422CD0FB681B686D4A934227D09F
:10333C00FB681B686B4A934222D0FB681B686A4A85
:10334C0093421DD0FB681B68684A934218D0FB68F7
:10335C001B68674A934213D0FB681B68654A93420B
:10336C000ED0FB681B68644A934209D0FB681B684B
:10337C00624A934204D0FB681B68614A934201D1B4
:10338C00012300E00023002B1AD0FB681B6E1B6886
:10339C0003F48033002B07D0FB681B6E1A68FB68A4
:1033AC001B6E42F480721A60FB68DB6E002B07D038
:1033BC00FB68DB6E1A68FB68DB6E42F480721A6085
:1033CC00FB681B68374A93424AD0FB681B68364A35
:1033DC00934245D0FB681B68344A934240D0FB684B
:1033EC001B68334A93423BD0FB681B68314A9342BB
:1033FC0036D0FB681B68304A934231D0FB681B689F
:10340C002E4A93422CD0FB681B682D4A934227D03E
:10341C00FB681B682B4A934222D0FB681B682A4A24
:10342C0093421DD0FB681B68284A934218D0FB6856
:10343C001B68274A934213D0FB681B68254A9342AA
:10344C000ED0FB681B68244A934209D0FB681B68AA
:10345C00224A934204D0FB681B68214A934208D14C
:10346C00FB681B681A68FB681B6842F001021A6053
:10347C0012E0FB681B681A68FB681B6842F00102CB
:10348C001A6009E0FB684FF400625A65FB68002281
:10349C0083F834200123FB75FB7D18461837BD4695
:1034AC0080BD00BF100002402800024040000240D6
:1034BC00580002407000024088000240A000024008
:1034CC00B8000240100402402804024040040240AC
:1034DC00580402407004024088040240A0040240D8
:1034EC00B8040240085402581C5402583054025874
:1034FC0044540258585402586C5402588054025880
:10350C009454025880B58AB000AF78600023FB60F9
:10351C00674B1B68674AA2FB03239B0A7B627B6891
:10352C009B6D3B627B689B6DFB613B6A1B68BB615F
:10353C00FB691B687B617B681B685F4A93424AD0BE
:10354C007B681B685D4A934245D07B681B685C4A6C
:10355C00934240D07B681B685A4A93423BD07B68AD
:10356C001B68594A934236D07B681B68574A934272
:10357C0031D07B681B68564A93422CD07B681B6801
:10358C00544A934227D07B681B68534A934222D0FB
:10359C007B681B68514A93421DD07B681B68504A5C
:1035AC00934218D07B681B684E4A934213D07B68B9
:1035BC001B684D4A93420ED07B681B684B4A934262
:1035CC0009D07B681B684A4A934204D07B681B680D
:1035DC00484A934201D1012300E00023002B00F064
:1035EC002B847B68DB6D03F01F0308229A40BB69B8
:1035FC001340002B00F0A2807B681B682E4A93427C
:10360C004AD07B681B682D4A934245D07B681B6867
:10361C002B4A934240D07B681B682A4A93423BD08A
:10362C007B681B68284A934236D07B681B68274A04
:10363C00934231D07B681B68254A93422CD07B681F
:10364C001B68244A934227D07B681B68224A93420A
:10365C0022D07B681B68214A93421DD07B681B6873
:10366C001F4A934218D07B681B681E4A934213D0A2
:10367C007B681B681C4A93420ED07B681B681B4AF4
:10368C00934209D07B681B68194A934204D07B682B
:10369C001B68184A93422FD17B681B681B6803F088
:1036AC000403002B14BF01230023DBB22EE000BF68
:1036BC0000000024B5814E1B10000240280002407F
:1036CC004000024058000240700002408800024056
:1036DC00A0000240B800024010040240280402403E
:1036EC004004024058040240700402408804024026
:1036FC00A0040240B80402407B681B681B6803F0FE
:10370C000803002B14BF01230023DBB2002B15D0C0
:10371C007B681B681A687B681B6822F004021A60BD
:10372C007B68DB6D03F01F0308229A403B6A9A60AA
:10373C007B685B6D43F001027B685A657B68DB6DCF
:10374C0003F01F03BA6922FA03F303F00103002B01
:10375C006ED07B681B68694A93424AD07B681B68B1
:10376C00674A934245D07B681B68664A934240D0B7
:10377C007B681B68644A93423BD07B681B68634A36
:10378C00934236D07B681B68614A934231D07B6888
:10379C001B68604A93422CD07B681B685E4A93423C
:1037AC0027D07B681B685D4A934222D07B681B68DC
:1037BC005B4A93421DD07B681B685A4A934218D0CF
:1037CC007B681B68584A934213D07B681B68574A26
:1037DC0093420ED07B681B68554A934209D07B6894
:1037EC001B68544A934204D07B681B68524A93422C
:1037FC000AD17B681B685B6903F08003002B14BF44
:10380C0001230023DBB203E07B681B681B680023E9
:10381C00002B0DD07B68DB6D03F01F0301229A4057
:10382C003B6A9A607B685B6D43F002027B685A6569
:10383C007B68DB6D03F01F0304229A40BB691340C5
:10384C00002B00F08F807B681B682C4A93424AD077
:10385C007B681B682A4A934245D07B681B68294ABF
:10386C00934240D07B681B68274A93423BD07B68CD
:10387C001B68264A934236D07B681B68244A9342C5
:10388C0031D07B681B68234A93422CD07B681B6821
:10389C00214A934227D07B681B68204A934222D04E
:1038AC007B681B681E4A93421DD07B681B681D4AAF
:1038BC00934218D07B681B681B4A934213D07B68D9
:1038CC001B681A4A93420ED07B681B68184A9342B5
:1038DC0009D07B681B68174A934204D07B681B682D
:1038EC00154A93422AD17B681B681B6803F00203BC
:1038FC00002B14BF01230023DBB223E01000024095
:10390C002800024040000240580002407000024073
:10391C0088000240A0000240B8000240100402409F
:10392C002804024040040240580402407004024043
:10393C0088040240A0040240B80402407B681B6863
:10394C001B680023002B0DD07B68DB6D03F01F037D
:10395C0004229A403B6A9A607B685B6D43F00402D8
:10396C007B685A657B68DB6D03F01F0310229A405D
:10397C00BB691340002B00F0A6807B681B68854A4E
:10398C0093424AD07B681B68834A934245D07B683C
:10399C001B68824A934240D07B681B68804A9342E2
:1039AC003BD07B681B687F4A934236D07B681B6890
:1039BC007D4A934231D07B681B687C4A93422CD061
:1039CC007B681B687A4A934227D07B681B68794ACC
:1039DC00934222D07B681B68774A93421DD07B6848
:1039EC001B68764A934218D07B681B68744A9342D2
:1039FC0013D07B681B68734A93420ED07B681B689C
:103A0C00714A934209D07B681B68704A934204D078
:103A1C007B681B686E4A93420AD17B681B681B68E3
:103A2C0003F00803002B14BF01230023DBB209E0D1
:103A3C007B681B681B6803F00403002B14BF012375
:103A4C000023DBB2002B3ED07B68DB6D03F01F0341
:103A5C0010229A403B6A9A607B681B681B6803F4CF
:103A6C008023002B18D07B681B681B6803F4002391
:103A7C00002B08D17B681B6C002B24D07B681B6C43
:103A8C00786898471FE07B689B6C002B1BD07B6889
:103A9C009B6C7868984716E07B681B681B6803F47E
:103AAC008073002B07D17B681B681A687B681B68C6
:103ABC0022F008021A607B681B6C002B03D07B6819
:103ACC001B6C786898477B68DB6D03F01F03202222
:103ADC009A40BB691340002B00F010817B681B6877
:103AEC002C4A93424AD07B681B682B4A934245D0A0
:103AFC007B681B68294A934240D07B681B68284A24
:103B0C0093423BD07B681B68264A934236D07B6835
:103B1C001B68254A934231D07B681B68234A934229
:103B2C002CD07B681B68224A934227D07B681B6889
:103B3C00204A934222D07B681B681F4A93421DD0B7
:103B4C007B681B681D4A934218D07B681B681C4A13
:103B5C00934213D07B681B681A4A93420ED07B6841
:103B6C001B68194A934209D07B681B68174A934219
:103B7C0004D07B681B68164A93422BD17B681B6868
:103B8C001B6803F01003002B14BF01230023DBB2CE
:103B9C002AE000BF10000240280002404000024012
:103BAC00580002407000024088000240A000024011
:103BBC00B8000240100402402804024040040240B5
:103BCC00580402407004024088040240A0040240E1
:103BDC00B80402407B681B681B6803F00203002BCF
:103BEC0014BF01230023DBB2002B00F087807B681D
:103BFC00DB6D03F01F0320229A403B6A9A607B68BE
:103C0C0093F83530DBB2042B39D17B681B681A680A
:103C1C007B681B6822F016021A607B681B685A6965
:103C2C007B681B6822F080025A617B681B6C002B3E
:103C3C0003D17B689B6C002B07D07B681B681A68D0
:103C4C007B681B6822F008021A607B68DB6D03F04E
:103C5C001F033F229A403B6A9A607B68012283F8DB
:103C6C0035207B68002283F834207B681B6D002B89
:103C7C0000F04A837B681B6D7868984744E37B6847
:103C8C001B681B6803F48023002B18D07B681B680F
:103C9C001B6803F40023002B08D17B685B6C002BA2
:103CAC002CD07B685B6C7868984727E07B68DB6B73
:103CBC00002B23D07B68DB6B786898471EE07B6811
:103CCC001B681B6803F48073002B0FD17B681B6887
:103CDC001A687B681B6822F010021A607B6801224C
:103CEC0083F835207B68002283F834207B68DB6BFB
:103CFC00002B03D07B68DB6B786898477B685B6D27
:103D0C00002B00F006837B685B6D03F00103002B36
:103D1C0000F088807B68042283F835207B681B6860
:103D2C007A4A93424AD07B681B68794A934245D0C1
:103D3C007B681B68774A934240D07B681B68764A45
:103D4C0093423BD07B681B68744A934236D07B68A5
:103D5C001B68734A934231D07B681B68714A93424B
:103D6C002CD07B681B68704A934227D07B681B68F9
:103D7C006E4A934222D07B681B686D4A93421DD0D9
:103D8C007B681B686B4A934218D07B681B686A4A35
:103D9C00934213D07B681B68684A93420ED07B68B1
:103DAC001B68674A934209D07B681B68654A93423B
:103DBC0004D07B681B68644A934208D17B681B68FB
:103DCC001A687B681B6822F001021A6007E07B68A6
:103DDC001B681A687B681B6822F001021A60FB687A
:103DEC000133FB607A6A9A4207D37B681B681B68B5
:103DFC0003F00103002BF2D100E000BF7B681B68CD
:103E0C001B6803F00103002B04D07B68032283F8AA
:103E1C00352003E07B68012283F835207B68002283
:103E2C0083F834207B68DB6C002B00F072827B689B
:103E3C00DB6C786898476CE27B681B68434A93425A
:103E4C0022D07B681B68424A93421DD07B681B685A
:103E5C00404A934218D07B681B683F4A934213D068
:103E6C007B681B683D4A93420ED07B681B683C4ABA
:103E7C00934209D07B681B683A4A934204D07B6812
:103E8C001B68394A934201D1012300E00023002B27
:103E9C0000F03F827B681B681B683B617B68DB6DB5
:103EAC0003F01F0304229A407B691340002B00F09F
:103EBC00CD803B6903F00403002B00F0C7807B68C6
:103ECC00DB6D03F01F0304229A40FB695A603B69C7
:103EDC0003F40043002B49D03B6903F48033002BDF
:103EEC0009D17B689B6C002B00F010827B689B6C6B
:103EFC00786898470AE27B681B6C002B00F00682FE
:103F0C007B681B6C7868984700E200BF1000024089
:103F1C00280002404000024058000240700002405D
:103F2C0088000240A0000240B80002401004024089
:103F3C00280402404004024058040240700402402D
:103F4C0088040240A0040240B804024008540258FD
:103F5C001C540258305402584454025858540258B5
:103F6C006C54025880540258945402583B6903F024
:103F7C002003002B60D17B681B687F4A93424AD098
:103F8C007B681B687D4A934245D07B681B687C4AE2
:103F9C00934240D07B681B687A4A93423BD07B6843
:103FAC001B68794A934236D07B681B68774A9342E8
:103FBC0031D07B681B68764A93422CD07B681B6897
:103FCC00744A934227D07B681B68734A934222D071
:103FDC007B681B68714A93421DD07B681B68704AD2
:103FEC00934218D07B681B686E4A934213D07B684F
:103FFC001B686D4A93420ED07B681B686B4A9342D8
:10400C0009D07B681B686A4A934204D07B681B68A2
:10401C00684A934208D17B681B681A687B681B68E6
:10402C0022F008021A6007E07B681B681A687B683C
:10403C001B6822F004021A607B681B6C002B00F0DA
:10404C0065817B681B6C786898475FE17B68DB6DEA
:10405C0003F01F0302229A407B691340002B00F0EF
:10406C00C5803B6903F00203002B00F0BF807B6826
:10407C00DB6D03F01F0302229A40FB695A603B6917
:10408C0003F40043002B18D03B6903F48033002B5E
:10409C0009D17B685B6C002B00F03A817B685B6C10
:1040AC007868984734E17B68DB6B002B00F030813B
:1040BC007B68DB6B786898472AE13B6903F0200347
:1040CC00002B40F089807B681B682B4A93424AD0B6
:1040DC007B681B68294A934245D07B681B68284A39
:1040EC00934240D07B681B68264A93423BD07B6846
:1040FC001B68254A934236D07B681B68234A93423F
:10410C0031D07B681B68224A93422CD07B681B6899
:10411C00204A934227D07B681B681F4A934222D0C7
:10412C007B681B681D4A93421DD07B681B681C4A28
:10413C00934218D07B681B681A4A934213D07B6851
:10414C001B68194A93420ED07B681B68174A93422E
:10415C0009D07B681B68164A934204D07B681B68A5
:10416C00144A934228D17B681B681A687B681B68C9
:10417C0022F014021A6027E01000024028000240CE
:10418C00400002405800024070000240880002408B
:10419C00A0000240B8000240100402402804024073
:1041AC00400402405804024070040240880402405B
:1041BC00A0040240B80402407B681B681A687B6844
:1041CC001B6822F00A021A607B68012283F83520F2
:1041DC007B68002283F834207B68DB6B002B00F0BB
:1041EC0097807B68DB6B7868984791E07B68DB6D28
:1041FC0003F01F0308229A407B691340002B00F048
:10420C0088803B6903F00803002B00F082807B68F8
:10421C001B68414A93424AD07B681B683F4A9342D1
:10422C0045D07B681B683E4A934240D07B681B6834
:10423C003C4A93423BD07B681B683B4A934236D046
:10424C007B681B68394A934231D07B681B68384ABB
:10425C0093422CD07B681B68364A934227D07B68EC
:10426C001B68354A934222D07B681B68334A9342C1
:10427C001DD07B681B68324A934218D07B681B6840
:10428C00304A934213D07B681B682F4A93420ED05E
:10429C007B681B682D4A934209D07B681B682C4AAB
:1042AC00934204D07B681B682A4A934208D17B68EE
:1042BC001B681A687B681B6822F01C021A6007E0F6
:1042CC007B681B681A687B681B6822F00E021A60F8
:1042DC007B68DB6D03F01F0301229A40FB695A6077
:1042EC007B6801225A657B68012283F835207B6844
:1042FC00002283F834207B68DB6C002B09D07B68B0
:10430C00DB6C7868984704E000BF02E000BF00E077
:10431C0000BF2837BD4680BD100002402800024077
:10432C0040000240580002407000024088000240E9
:10433C00A0000240B80002401004024028040240D1
:10434C0040040240580402407004024088040240B9
:10435C00A0040240B804024080B487B000AFF860FB
:10436C000B467A60FB720023FB75FB68002B01D1B6
:10437C00012345E0FB6893F83430012B01D1022373
:10438C003EE0FB68012283F83420FB6893F835305B
:10439C00DBB2012B2DD1FB7A052B27D801A252F8C9
:1043AC0023F000BFC9430008D1430008D9430008DB
:1043BC00E1430008E9430008F1430008FB687A6810
:1043CC00DA6318E0FB687A681A6414E0FB687A68B0
:1043DC005A6410E0FB687A689A640CE0FB687A68AF
:1043EC00DA6408E0FB687A681A6504E00123FB755F
:1043FC0001E00123FB75FB68002283F83420FB7D70
:10440C0018461C37BD465DF8047B704780B487B0F6
:10441C0000AFF860B9607A603B60FB689B6D7B61B4
:10442C00FB689B6D3B61FB681B687F4A934272D0B3
:10443C00FB681B687D4A93426DD0FB681B687C4A05
:10444C00934268D0FB681B687A4A934263D0FB683E
:10445C001B68794A93425ED0FB681B68774A93428B
:10446C0059D0FB681B68764A934254D0FB681B6892
:10447C00744A93424FD0FB681B68734A93424AD0EC
:10448C00FB681B68714A934245D0FB681B68704AF5
:10449C00934240D0FB681B686E4A93423BD0FB684A
:1044AC001B686D4A934236D0FB681B686B4A93427B
:1044BC0031D0FB681B686A4A93422CD0FB681B689E
:1044CC00684A934227D0FB681B68674A934222D004
:1044DC00FB681B68654A93421DD0FB681B68644AE5
:1044EC00934218D0FB681B68624A934213D0FB6856
:1044FC001B68614A93420ED0FB681B685F4A93426B
:10450C0009D0FB681B685E4A934204D0FB681B68A9
:10451C005C4A934201D1012300E00023002B0DD013
:10452C00FB685B6EFA68926E5A60FB68DB6E002B60
:10453C0004D0FB681B6FFA68526F5A60FB681B68EB
:10454C00394A93424AD0FB681B68384A934245D09B
:10455C00FB681B68364A934240D0FB681B68354A9F
:10456C0093423BD0FB681B68334A934236D0FB68BE
:10457C001B68324A934231D0FB681B68304A934225
:10458C002CD0FB681B682F4A934227D0FB681B6812
:10459C002D4A934222D0FB681B682C4A93421DD0B3
:1045AC00FB681B682A4A934218D0FB681B68294A8F
:1045BC00934213D0FB681B68274A93420ED0FB68CA
:1045CC001B68264A934209D0FB681B68244A934215
:1045DC0004D0FB681B68234A934201D1012300E0FD
:1045EC000023002B59D0FB68DB6D03F01F033F2227
:1045FC009A407B699A60FB681B681A68FB681B68A9
:10460C0022F480221A60FB681B683A685A60FB68C7
:10461C009B68402B38D1FB681B687A689A60FB68F2
:10462C001B68BA68DA6086E010000240280002407D
:10463C0040000240580002407000024088000240D6
:10464C00A0000240B80002401004024028040240BE
:10465C0040040240580402407004024088040240A6
:10466C00A0040240B8040240085402581C540258DA
:10467C003054025844540258585402586C5402583E
:10468C008054025894540258FB681B68BA689A60AC
:10469C00FB681B687A68DA604DE0FB681B68294A86
:1046AC00934222D0FB681B68274A93421DD0FB68BB
:1046BC001B68264A934218D0FB681B68244A934215
:1046CC0013D0FB681B68234A93420ED0FB681B680F
:1046DC00214A934209D0FB681B68204A934204D0BC
:1046EC00FB681B681E4A934201D1012300E00023A2
:1046FC00002B20D0FB68DB6D03F01F0301229A40D6
:10470C003B695A60FB681B683A685A60FB689B6897
:10471C00402B08D1FB681B687A689A60FB681B68A1
:10472C00BA68DA6007E0FB681B68BA689A60FB68D5
:10473C001B687A68DA6000BF1C37BD465DF8047BE5
:10474C00704700BF085402581C5402583054025889
:10475C0044540258585402586C540258805402580D
:10476C009454025880B485B000AF78607B681B68A5
:10477C00424A93424AD07B681B68414A934245D0D7
:10478C007B681B683F4A934240D07B681B683E4A5B
:10479C0093423BD07B681B683C4A934236D07B6883
:1047AC001B683B4A934231D07B681B68394A934261
:1047BC002CD07B681B68384A934227D07B681B68D7
:1047CC00364A934222D07B681B68354A93421DD0EF
:1047DC007B681B68334A934218D07B681B68324A4B
:1047EC00934213D07B681B68304A93420ED07B688F
:1047FC001B682F4A934209D07B681B682D4A934251
:10480C0004D07B681B682C4A934201D1012300E041
:10481C000023002B24D07B681B68DBB2103B274A9B
:10482C00A2FB03231B09FB60FB6803F00703244A6C
:10483C00D35C1A467B68DA65FB68032B08D97B6866
:10484C001B681A461F4B13401A1D7B689A650DE0B6
:10485C007B681B681A461B4B13407A68936505E00E
:10486C007B681B6823F0FF027B689A657B689B6DF5
:10487C0018461437BD465DF8047B704710000240A3
:10488C0028000240400002405800024070000240E4
:10489C0088000240A0000240B80002401004024010
:1048AC0028040240400402405804024070040240B4
:1048BC0088040240A0040240B8040240ABAAAAAA91
:1048CC000C57050800FCFFFF80B485B000AF786082
:1048DC000023FB737B689B69002B20D17B689B6A50
:1048EC00032B58D801A252F823F000BF0949000845
:1048FC001B49000809490008A34900087B68DB6ACA
:10490C0003F08073002B48D00123FB7345E07B68D8
:10491C00DB6AB3F1C07F42D10123FB733FE07B68BC
:10492C009B69B3F5005F23D17B689B6A032B38D856
:10493C0001A252F823F000BF554900085B4900085A
:10494C00554900086D4900080123FB7330E07B6872
:10495C00DB6A03F08073002B25D00123FB7322E06C
:10496C007B68DB6AB3F1C07F1FD10123FB731CE0B2
:10497C007B689B6A022B02D9032B03D018E001231E
:10498C00FB7315E07B68DB6A03F08073002B0ED0A1
:10499C000123FB730BE000BF0AE000BF08E000BF7F
:1049AC0006E000BF04E000BF02E000BF00E000BF73
:1049BC00FB7B18461437BD465DF8047B704700BF7F
:1049CC0080B485B000AF78607B681B68BB607B6887
:1049DC001B68384A934222D07B681B68364A934244
:1049EC001DD07B681B68354A934218D07B681B68C6
:1049FC00334A934213D07B681B68324A93420ED0E1
:104A0C007B681B68304A934209D07B681B682F4A2D
:104A1C00934204D07B681B682D4A934201D1012339
:104A2C0000E00023002B1AD07B681B68DBB2083B2C
:104A3C00284AA2FB03231B09FB60FA68264B13448C
:104A4C009B001A467B681A667B68244A5A66FB6888
:104A5C0003F01F0301229A407B689A6624E07B686E
:104A6C001B68DBB2103B1E4AA2FB03231B09FB6035
:104A7C00BB681C4A934206D8BB681B4A934202D9B6
:104A8C00FB680833FB60FA68184B13449B001A460A
:104A9C007B681A667B68164A5A66FB6803F01F032C
:104AAC0001229A407B689A6600BF1437BD465DF8B8
:104ABC00047B7047085402581C5402583054025856
:104ACC0044540258585402586C540258805402589A
:104ADC0094540258CDCCCCCC009600168058025879
:104AEC00ABAAAAAAB80402400F040240008200102C
:104AFC008008024080B485B000AF78607B685B684A
:104B0C00DBB2FB60FB68002B4AD0FB68082B47D854
:104B1C007B681B68254A934222D07B681B68244A19
:104B2C0093421DD07B681B68224A934218D07B6845
:104B3C001B68214A934213D07B681B681F4A93421F
:104B4C000ED07B681B681E4A934209D07B681B6899
:104B5C001C4A934204D07B681B681B4A934201D1C8
:104B6C00012300E00023002B0AD0FA68174B1344F2
:104B7C009B001A467B68DA667B68154A1A6709E05F
:104B8C00FA68144B13449B001A467B68DA667B6800
:104B9C00114A1A67FB68013B01229A407B685A67ED
:104BAC0000BF1437BD465DF8047B704708540258AB
:104BBC001C54025830540258445402585854025849
:104BCC006C54025880540258945402583F96001664
:104BDC00405902583F8200104009024080B489B00D
:104BEC0000AF786039600023FB61864B7B618CE100
:104BFC003B681A680121FB6901FA03F313403B611E
:104C0C003B69002B00F07E813B685B6803F003037B
:104C1C00012B05D03B685B6803F00303022B30D1FA
:104C2C007B689B68BB61FB695B00032202FA03F3A0
:104C3C00DB43BA691340BB613B68DA68FB695B0014
:104C4C0002FA03F3BA691343BB617B68BA699A60D1
:104C5C007B685B68BB610122FB6902FA03F3DB43EF
:104C6C00BA691340BB613B685B681B0903F0010226
:104C7C00FB6902FA03F3BA691343BB617B68BA6937
:104C8C005A603B685B6803F00303032B17D07B6807
:104C9C00DB68BB61FB695B00032202FA03F3DB43B5
:104CAC00BA691340BB613B689A68FB695B0002FA06
:104CBC0003F3BA691343BB617B68BA69DA603B687A
:104CCC005B6803F00303022B23D1FB69DA087B68D2
:104CDC00083253F82230BB61FB6903F007039B00D9
:104CEC000F2202FA03F3DB43BA691340BB613B6842
:104CFC001A69FB6903F007039B0002FA03F3BA6914
:104D0C001343BB61FB69DA087B680832B96943F865
:104D1C0022107B681B68BB61FB695B00032202FAF3
:104D2C0003F3DB43BA691340BB613B685B6803F078
:104D3C000302FB695B0002FA03F3BA691343BB611C
:104D4C007B68BA691A603B685B6803F44033002BDC
:104D5C0000F0D8802C4BD3F8F4302B4A43F00203EC
:104D6C00C2F8F430284BD3F8F43003F00203FB60A4
:104D7C00FB68264AFB699B08023352F82330BB615F
:104D8C00FB6903F003039B000F2202FA03F3DB43DE
:104D9C00BA691340BB617B681D4A93424AD07B6859
:104DAC001C4A93422BD07B681B4A934225D07B68CC
:104DBC001A4A93421FD07B68194A934219D07B68D8
:104DCC00184A934213D07B68174A93420DD07B68E4
:104DDC00164A934207D07B68154A934201D10923A6
:104DEC0029E00A2327E0072325E0062323E00523F7
:104DFC0021E004231FE003231DE002231BE0012319
:104E0C0019E000BF8000005800440258000400580C
:104E1C00000002580004025800080258000C025806
:104E2C00001002580014025800180258001C0258B6
:104E3C00002402580023FA6902F003029200934006
:104E4C00BA691343BB613849FB699B080233BA69E1
:104E5C0041F823204FF0B0431B68BB613B69DB4337
:104E6C00BA691340BB613B685B6803F48013002B89
:104E7C0003D0BA693B691343BB614FF0B042BB69C5
:104E8C0013604FF0B0435B68BB613B69DB43BA69AD
:104E9C001340BB613B685B6803F40013002B03D029
:104EAC00BA693B691343BB614FF0B042BB695360B5
:104EBC007B695B68BB613B69DB43BA691340BB61CF
:104ECC003B685B6803F40033002B03D0BA693B6981
:104EDC001343BB617B69BA695A607B691B68BB6110
:104EEC003B69DB43BA691340BB613B685B6803F405
:104EFC008033002B03D0BA693B691343BB617B69D8
:104F0C00BA691A60FB690133FB613B681A68FB697B
:104F1C0022FA03F3002B7FF46BAE00BF00BF2437E3
:104F2C00BD465DF8047B70470004005880B485B022
:104F3C0000AF78600B467B807B681A697B881340D6
:104F4C00002B02D00123FB7301E00023FB73FB7BDE
:104F5C0018461437BD465DF8047B704780B483B0A7
:104F6C0000AF78600B467B8013467B707B78002B00
:104F7C0003D07A887B689A6103E07B881A047B688B
:104F8C009A6100BF0C37BD465DF8047B704780B555
:104F9C0082B000AF0346FB804FF0B043D3F88820BB
:104FAC00FB881340002B08D04FF0B042FB88C2F8AE
:104FBC008830FB881846FCF79BF900BF0837BD46C4
:104FCC0080BD000080B584B000AF78607B68002B9A
:104FDC0001D10123BFE07B6893F8A130DBB2002B39
:104FEC0006D17B68002283F8A020786800F0BAF81C
:104FFC007B68022283F8A1207B681B689A697B6816
:10500C001B6822F070429A617B681B6899697B6807
:10501C005A687B689B681A437B68DB681A437B6819
:10502C001B691A437B681B680A439A617B681B687F
:10503C0099687B681A684A4B0B4093607B685B6984
:10504C001B04FB607B681B6899687B689A69FB682A
:10505C001A437B681B680A439A607B681B68D96893
:10506C007B681A683E4B0B40D3607B68DB691B0482
:10507C00FB607B681B68D9687B681A6AFB681A43FB
:10508C007B681B680A43DA607B681B6819697B685C
:10509C001A68334B0B4013617B685B6A1B04FB6023
:1050AC007B681B6819697B689A6AFB681A437B6882
:1050BC001B680A431A617B681B6859697B681A680C
:1050CC00274B0B4053617B68DB6A1B04FB607B68DE
:1050DC001B6859697B681A6BFB681A437B681B68F1
:1050EC000A435A617B6893F835301B02FB607B687E
:1050FC0093F836301B04BB607B681B68DA6A7B68EC
:10510C001B6802F07F42DA627B681B68D96ABA6856
:10511C00FB6813437A6892F834201A437B681B6847
:10512C000A43DA627B681B685A6B7B681B6842F027
:10513C0006025A637B681B689A697B681B6842F09D
:10514C0001029A617B680022C3F8A4207B680122CB
:10515C0083F8A120002318461037BD4680BD00BF40
:10516C0000F800F080B483B000AF786000BF0C375B
:10517C00BD465DF8047B7047B0B584B000AFF860F5
:10518C00B9607A60FB6893F8A030012B01D102233F
:10519C002CE0FB68012283F8A020FB68022283F834
:1051AC00A120FA687B68342101FB03F3134403F15B
:1051BC003802BB6814461D460FCD0FC40FCD0FC46B
:1051CC000FCD0FC42B6823607A68B968F86800F0BB
:1051DC0011F8FB681B6801225A62FB68012283F8F4
:1051EC00A120FB68002283F8A0200023184610376A
:1051FC00BD46B0BD80B489B000AFF860B9607A60CC
:10520C00BB685A68FB681B68DB681B0CC3F30B0399
:10521C0013441B04FB61FB681B681A467B68DB01AB
:10522C00134484335B68FA68126811467A68D201B9
:10523C000A44843203F470435360BB681A68FB68F9
:10524C001B68DB681B0CC3F30B0313445A1CFB6871
:10525C001B6819467B68DB010B4484331946FB69D8
:10526C0013434B60BB68DA68FB681B68DB68C3F3ED
:10527C000A0313441B04FB61FB681B681A467B681A
:10528C00DB01134484339B68FA68126811467A6810
:10529C00D2010A44843203F470439360BB689A6869
:1052AC00FB681B68DB68C3F30A0313445A1CFB68D6
:1052BC001B6819467B68DB010B4484331946FB6978
:1052CC0013438B60FB681B681A467B68DB01134435
:1052DC0084331B69FA68126811467A68D2010A4451
:1052EC00843223F007031361FB681B681A467B6842
:1052FC00DB01134484331A46BB681B691361BB681A
:10530C0093F831301B02FB61BB6893F832301B04FD
:10531C00BB61BB689B691B067B61FB681B681A46FB
:10532C007B68DB01134484339B69FB681B681A465A
:10533C007B68DB01134484331A4600239361BB68FA
:10534C0093F830301A46FB691A43BB691A43FB6861
:10535C001B6819467B68DB010B44843319467B6957
:10536C0013438B61FB681B681A467B68DB01134493
:10537C0084335B69FA68126811467A68D2010A4470
:10538C00843223F0FF035361FB681B681A467B6869
:10539C00DB01134484331A46BB685B695361FB68B9
:1053AC001B681A467B68DB0113448433DA69FB689B
:1053BC001B6819467B68DB010B4484331946584B38
:1053CC001340CB61BB68DA69BB681B6AF968096872
:1053DC0008467968C901014484311343CB61FB68E9
:1053EC001B681A467B68DB01134484339B6AFB6899
:1053FC001B681A467B68DB01134484331A4600236E
:10540C009362FB681B681A467B68DB011344843388
:10541C001A46BB685B6A9362BB681B69002B02D19E
:10542C000423FB611BE0BB681B69012B02D1032326
:10543C00FB6114E0BB681B69042B0BD0BB681B69B8
:10544C00022B07D0BB681B69032B03D0BB681B69FD
:10545C00072B02D10223FB6101E00123FB61FB68F6
:10546C001B681A467B68DB0113448433DB6AFA68D9
:10547C00126811467A68D2010A44843203F0E023A0
:10548C00D362BB689B6AFA6902FB03F31A04BB681C
:10549C005968BB681B68CB1AF96901FB03F3073326
:1054AC00F968096808467968C901014484311343D5
:1054BC00CB62FB681B681A467B68DB0113448433A0
:1054CC001A6BFB681B6819467B68DB010B44843341
:1054DC001946144B13400B63FB681B681A467B6818
:1054EC00DB01134484331A46BB68DB6A1363FB6825
:1054FC001B681A467B68DB01134484331B68FA680B
:10550C00126811467A68D2010A44843243F00103CE
:10551C00136000BF2437BD465DF8047B704700BFA5
:10552C00F8F8FFFF00F8FFFF80B584B000AF78609B
:10553C00FDF768F8F8607B68002B01D101233BE094
:10554C007B68002283F83C207B68022283F83D2094
:10555C007B681B68DA687B681B6822F00102DA60E2
:10556C000FE0FDF74FF80246FB68D31A052B08D95C
:10557C007B6840229A667B68032283F83D200123D6
:10558C001AE07B681B68DB6803F00103002BE8D191
:10559C00786800F015F87B680022DA657B680022D9
:1055AC001A667B6800225A667B6800229A667B68C2
:1055BC00012283F83D20002318461037BD4680BDDC
:1055CC0080B485B000AF78607B68D9687B681A6955
:1055DC007B681B680A43DA607B685A697B689B6945
:1055EC001A437B68DB691A437B681B6A1A437B6826
:1055FC005B6A1A437B68DB6A1A437B681B6B1A4332
:10560C007B689B6A013B9B0442EA03017B689A68B6
:10561C007B681B680A431A617B685B68B3F1804F37
:10562C0007D17B681B681A697B681B6842F0404293
:10563C001A617B681B6800225A617B685B6B002BCC
:10564C0011DA7B681B685A697B681B6842F48022FC
:10565C005A617B685B6B5B42FB607B681B68FA681A
:10566C0092B21A6206E07B685B6B1A467B681B6819
:10567C0092B21A627B689B6B002B15DA7B681B68F5
:10568C005A697B681B6842F400225A617B689B6BE9
:10569C005B42FB607B681B68196AFB681A047B68B9
:1056AC001B680A431A6209E07B681B68196A7B68ED
:1056BC009B6B1A047B681B680A431A627B685B68E5
:1056CC00B3F1804F06D07B685A687B681B68D2B2F6
:1056DC009A6203E07B681B6800229A627B681B68F5
:1056EC0000225A6200BF1437BD465DF8047B704738
:1056FC0080B586B002AF78600023FB73FCF782FFA5
:10570C00B8607B68002B02D10123FB73A5E07B689A
:10571C0000225A657B681B6D002B40F09E807868D8
:10572C0000F0A2F841F28831786800F0DDFA7B686D
:10573C001B689A684B4B13407A68D1687A68126977
:10574C00013A120411437A685269013A1202114368
:10575C007A68526B11437A68D26911437A6812687D
:10576C000B4393607B681B68DB6823F4E0217B6848
:10577C001A6A7B681B680A43DA607B681B6B190426
:10578C007B689A6B7B681B680A431A617B681B6891
:10579C007A68D26B5A617B681B681B6823F4F851DA
:1057AC007B685B68013B1A027B681B680A431A60C2
:1057BC007B689B6D0093BB6800222021786800F009
:1057CC00A2FA0346FB73FB7B002B46D17B681B685C
:1057DC00DB6823F0FF017B685B6A5A1E7B681B68E1
:1057EC000A43DA607B681B681B6823F040017B6806
:1057FC009A687B681B680A431A607B681B68D3F83D
:10580C00083123F0A0417B689A6A7B68DB6A1A43F3
:10581C007B681B680A43C3F808217B681B681A68FD
:10582C007B681B6842F001021A607B689B69022B43
:10583C0007D17B681B689A687B681B6842F0020280
:10584C009A607B68DB68B3F1806F03D17B680122BF
:10585C001A6502E07B6802221A65FB7B184610373A
:10586C00BD4680BDF4F8E0F880B483B000AF78603A
:10587C0000BF0C37BD465DF8047B704780B584B023
:10588C0000AF78600023FB737B68002B02D10123EF
:10589C00FB7315E07B681B681A687B681B6822F039
:1058AC0001021A607B681B689A687B681B6822F08F
:1058BC0002029A60786800F008F87B6800221A658A
:1058CC00FB7B18461037BD4680BD80B483B000AF5B
:1058DC00786000BF0C37BD465DF8047B704780B51F
:1058EC008AB002AFF860B9607A60FCF78BFEB861E1
:1058FC00FB681B6D7B617B69012B02D07B69022BE2
:10590C0022D17B680093BB6900222021F86800F04B
:10591C00FAF90346FB77FB7F002B1AD1BB681B6897
:10592C001A04BB685B681B021A43BB689B6842EA9B
:10593C000301BB68DA68FB681B680A43C3F80022E2
:10594C00FB6802221A6504E00123FB77FB68102236
:10595C005A65FB7F18462037BD4680BD80B588B0A0
:10596C0002AFF860B9607A60FCF74CFE3861FB68F6
:10597C001B6D022B49D1FB68DB68B3F1806F44D1FE
:10598C007B6800933B6900222021F86800F0BBF98A
:10599C000346FB75FB7D002B3CD1FB681B681A682A
:1059AC00FB681B6822F040521A60FB681B689B68FE
:1059BC0023F08071BB681A68FB681B680A439A6005
:1059CC00BB681A69BB689B681A43FB681B6842F08A
:1059DC000C22C3F80021BB681A69BB689B681A4388
:1059EC00FB681B6842F00C22C3F88021BB68DA68A4
:1059FC00FB681B68013A1A64FB681B68BA6852683A
:105A0C009A64FB6804221A6504E00123FB75FB68A9
:105A1C0010225A65FB7D18461837BD4680BD80B5EF
:105A2C008AB002AFF860B9607A60FCF7EBFDB86140
:105A3C00FB681B6850337B61BB68002B05D10123CD
:105A4C00FB77FB6808225A6557E0FB681B6D042B3B
:105A5C004ED1FB681B681B6C5A1CFB689A64FB6874
:105A6C009A6CFB685A64FB68BA681A64FB681B681A
:105A7C001A68FB681B6822F040521A607B6800931E
:105A8C00BB6901220421F86800F03DF90346FB775D
:105A9C00FB7F002B13D1FB681B6C1A787B691A7087
:105AAC00FB681B6C5A1CFB681A64FB689B6C5A1EC7
:105ABC00FB689A64FB689B6C002BDFD100E000BF95
:105ACC00FB7F002B19D17B680093BB69012202215B
